:020000040800F2
:10000000583200207D0100088501000887010008A2
:10001000890100088B0100088D0100080000000024
:100020000000000000000000000000008F01000838
:1000300091010008000000009301000895010008EC
:100040009701000897010008392A00080000000005
:1000500000000000970100089701000897010008C0
:1000600097010008000000009701000897010008B0
:1000700097010008000000009701000897010008A0
:100080009701000897010008000000009701000890
:1000900097010008000000000000000000000000C0
:1000A00000000000000000000000000097010008B0
:1000B00097010008970100089701000897010008C0
:1000C00000F002F800F04AF80AA090E8000C824420
:1000D0008344AAF10107DA4501D100F03FF8AFF2FD
:1000E000090EBAE80F0013F0010F18BFFB1A43F016
:1000F00001031847C0370000E0370000103A24BF62
:1001000078C878C1FAD8520724BF30C830C144BF7C
:1001100004680C60704700000023002400250026BE
:10012000103A28BF78C1FBD8520728BF30C148BF5A
:100130000B607047662903F05280642900F05280FA
:10014000002070471FB500F099FB0400002000213B
:1001500002F06CFEE0601FBD10B510BD00F08EFC1B
:100160001146FFF7EFFF02F031FE00F0ACFC03B4E4
:10017000FFF7F2FF03BC00F0EFFC000009488047E6
:1001800009480047FEE7FEE7FEE7FEE7FEE7FEE779
:10019000FEE7FEE7FEE7FEE704480549054A064B91
:1001A000704700005D1E0008C1000008582C0020A8
:1001B00058320020582E0020582E00200FB41CB5B5
:1001C000074B06AA7B4469460090059800F03DFB6A
:1001D0000020694600F04CFB1CBC5DF814FB0000DD
:1001E000A90600002DE9F041064600241068752993
:1001F000314616A510D0AFF30080002802DA404245
:1002000013A507E031688A0701D512A502E0490766
:1002100004D511A5012401E0AFF3008000210A22DA
:1002200006F1240709E0B0FBF2FCB0FBF2F302FB9D
:100230001C00303078541846491C0028F3D123465E
:100240002A463046BDE8F04100F092B800000000B8
:100250002D0000002B000000200000002DE9F047D9
:100260004FF0000A89460446C0F820A02046E16805
:100270008847002876D0252806D0D4E90121904768
:10028000206A401C2062F1E7E1682046002588478B
:10029000C4F81CA006460027C4F818A02A2E09D0CE
:1002A000304602F075FC38B304EB8708303EC8F8DE
:1002B000186019E059F8041B204604EB870291618D
:1002C000E1688847012F064618D1E069002820DA46
:1002D00025F020051DE0D8F8180000EB800006EBA3
:1002E00040003038C8F818002046E16888470646C4
:1002F00002F04EFC0028EED1012F0AD02E2E08D19C
:100300002046E16888477F1C0646022F45F02005FD
:10031000C4DBA069002803DA404245F00105A06172
:10032000E80701D025F01005B6B1A6F14100192863
:1003300002D8203645F400654A46314620462560FD
:100340004D46FFF7F7FE58B1012806D0ED1D25F008
:10035000070000F1080989E704E005F1040985E7D1
:1003600030468AE7206ABDE8F087704770477047DB
:100370002DE9F0470D4699469246044600F12408BF
:100380000168880604D5E06921F01001216000E0D1
:100390000120A84201DD471B00E00027A1697A196E
:1003A00002EB0900081AA0612078C00602D420469A
:1003B000AFF30080002608E0D4E901211AF8060016
:1003C0009047206A401C761C20624E45F4DB207862
:1003D000C0060AD52046AFF3008006E0D4E901212B
:1003E00030209047206A401C2062381EA7F1010788
:1003F000F4DC07E0D4E9012118F805009047206AF1
:10040000401C2062281EA5F10105F3DC2046AFF355
:1004100000802078000602D50220BDE8F087012088
:10042000FBE770472DE9FF4F0C461E464FF0FF37A4
:100430008BB0D2E90001DDF860800A908A46C1F3F2
:100440000A5505B93D46002108464FF00000BAF1B3
:10045000000F00F4400005DA00EB80004FF440018B
:1004600001EA50004FEA9059B9F1010F00DDB94699
:100470000A9850EA4A000ED044F61050A5F2FF3513
:1004800045432F14B8F1000F1ED07542291E1EDD02
:10049000C9F100021CE0B8F1010F4FF0000001D0DB
:1004A000302103E0F24305E02154401CB042FBDB65
:1004B00030460022002121540B99C1F80880C1E97F
:1004C00000200FB0BDE8F08FBD1B6D1CDEE74A4673
:1004D00000DA694206A800F05BFA06AB93E8070071
:1004E00003AB83E8070050460A9900F03CFB8DE817
:1004F0000700A0F500501F3800900398002D0ADD7A
:1005000042F21F014A460844002303A903906846AB
:1005100000F0A5FD09E0A0F500504A461F38002371
:1005200003A90390684600F0AFFD8DE807000004C2
:10053000000C03D04FF0FF30410800E01046B8F146
:10054000000F03D00022009215461EE0751E05D450
:1005500000F098F9303262556D1EF9D5B34601228C
:10056000084302D000227F1C04E02078302801D10B
:1005700000227F1E002A099784D01DE0112D07DA82
:1005800000F080F9303262556D1C50EA0102F5D15D
:10059000084302D00098C8B10EE00021681E05E0B3
:1005A000235C625C63542254401E491C8142F7DB89
:1005B000AB46A81B401E0990002004F80B000B98C6
:1005C000099AC0F80880C0E9002B7AE711264FF09D
:1005D000000857E72DE9F04F88460446D21D22F067
:1005E000070191B0D1E90001CDE90A0102F0BCFA9E
:1005F00002460B98C00F01D02D2007E0206881072C
:1006000001D52B2002E0202101EAC000032A099035
:1006100001D0072A05DB03464146204600F078F961
:100620000BE12078800601D5E06900E00620B8F1F2
:10063000650F814606D0B8F1660F18D0B8F1670F84
:1006400070D131E00020B9F1110F009001DB1123CE
:1006500001E009F101030AAA01A90CA8FFF7E2FED3
:10066000DDE90C70002609F10105834647E0012011
:100670004B4600904FF000470AAA01A90CA8FFF7CB
:10068000D1FEDDE90DB00C995D46002610B909F1E7
:1006900001000D18B9EB050003D4C0F1FF3609F1D4
:1006A0000105A5EB09002BE0B9F1010F01DA4FF0CC
:1006B00001090020B9F1110F0090484601DD112316
:1006C00000E003460AAA01A90CA8FFF7ABFEDDE98A
:1006D0000C704D4600268346207800070AD4AB45AF
:1006E00000DA5D4601A8012D04DD411911F8011C55
:1006F000302907D04F4502DA17F1040F04DA012040
:1007000082460FE06D1EEEE7002F02DCED1B3E443B
:1007100003E0781CA84200DD7D1CB81B00F1010A33
:100720004FF000472078000703D4AA4501DB4FF0C3
:10073000FF3A0021B7F1004F0DF143088DF8431047
:1007400024D002202B23002F01DA7F422D230A21FF
:10075000021EA0F1010000DC5FB197FBF1FC97FBEA
:10076000F1F201FB1C7C17460CF1300C08F801CDAE
:10077000EEE7A8F1010003702188090501D54521A4
:1007800000E06521A0F1010800F8011C09980FA9FB
:10079000A1EB0807FF1D00B10120411901EBEA7030
:1007A000A1693844081A401EA0612078C00602D40E
:1007B0002046AFF30080099828B1D4E90121904781
:1007C000206A401C20622078C00622D52046AFF364
:1007D00000801EE0002E04DBB34502DD01A8805D31
:1007E00000E03020D4E901219047206A401C2062BB
:1007F000761CAAF101005FEA000A0AD100F03EF877
:10080000C0680168405CD4E901219047206A401C1F
:100810002062281EA5F10105DCDC07E0D4E90121F6
:1008200018F8010B9047206A401C2062381EA7F17F
:100830000107F3DC2046AFF30080032011B041E64E
:1008400001694A1C02610878704700B58FB0CDE994
:1008500001310021059105497944CDE90310114684
:100860006846FFF7FBFC0FB000BD0000E5FFFFFF8F
:100870000A6802F8010B0A607047000000487047E0
:10088000142C002030B5B0F10A024FEA900E71F13D
:1008900000034EEA817EB0EB0E0061EB91014FEA5E
:1008A000101E4EEA017E10EB0E0041EB11114FEAD3
:1008B000102E4EEA016E10EB0E0041EB11214FEAB3
:1008C000104E4EEA014E10EB0E0041EB1141401864
:1008D00041F100014FEAD00040EA41704FEAD101F6
:1008E00010EB80054FEA810444EA907444EB010464
:1008F0006D1944EB0404521BA3414FF0000348BFA1
:100900000A3200D530BD401C41F1000130BD00006D
:100910002DE9F0411F46044603260168072A01F429
:10092000006004DB08B116A505E016A503E008B1D8
:1009300015A500E015A521F010002060A069C01EDB
:10094000A0610FB1401EA0612046AFF300804FB1FF
:10095000D4E9012138469047206A401C2062C01C1F
:10096000206206E0206AFAE7D4E9012115F8010BBC
:100970009047761EF8D22046AFF30080BDE8F081A4
:100980004E414E006E616E00494E4600696E660033
:100990002DE9F047814616468AB0354878440DC89F
:1009A0008DE80D0032487844801C03AC0DC884E803
:1009B0000D0041F69B300844372190FBF1F290FB8B
:1009C000F1F5A5F1800501FB12041B3C02D5644240
:1009D000012000E00020DFF898A080460027FA44BC
:1009E000AAF1BE0A0EE0E0070AD03246684607EBDD
:1009F000470101230AEB810100F046FB8DE8070067
:100A000064107F1C002CEED1194F7F44AE3F19E0DB
:100A1000E80715D007EB04100DF1180A90E80E0056
:100A20008AE80E00C068F04201D198190890324659
:100A3000012306A903A800F027FB03AB83E8070006
:100A40006D10641C002DE3D14FF00103324669465E
:100A5000B8F1000F03A802D000F001FB01E000F0A4
:100A600013FBC9E90001C9F808200AB0BDE8F08706
:100A7000FC2E000000487047F42B00207546FFF75D
:100A8000F9FFAE4605006946534620F0070085464B
:100A900018B020B5FFF780FBBDE820404FF00006FE
:100AA0004FF000074FF000084FF0000B21F0070156
:100AB000AC46ACE8C009ACE8C009ACE8C009ACE899
:100AC000C0098D46704710B50446AFF3008020463C
:100AD000BDE81040FFF74BBB4FF0013C50F8042B32
:100AE00051F8043B9A4221D1A2EB0C03934313EA41
:100AF000CC1317D150F8042B51F8043B9A4215D16E
:100B0000A2EB0C03934313EACC130BD150F8042B44
:100B100051F8043B9A4209D1A2EB0C03934313EA28
:100B2000CC13DBD04FF00000704700BFD01A01BAE1
:100B3000B1FA81F101F0180122FA01F0CB40C1F1C4
:100B40002001DBB2C0B2C01A2CFA01F3D11A9143D2
:100B500011EAC311E6D1704701491820ABBEFEE788
:100B60002600020070475FEA400C08BF91F0000FBA
:100B70004FEA8C234FEAC12243EA51514FEA1C50FD
:100B800018BF00F5F0404FEA300018BF41F00041B7
:100B90005FEA6C5C00F02980BCF1FF3F08BF40F0C9
:100BA00080407047130C06BF12044FF0100C4FF03A
:100BB000000C130E04BF12020CF1080C130F04BF3B
:100BC00012010CF1040C930F04BF92000CF1020C03
:100BD000D30F04BF52000CF1010C11464FF000027C
:100BE000A0F11F00A0EB0C00704711F0004F08BFF0
:100BF000704731F000413FF4D5AF0B0C06BF09043C
:100C00004FF0100C4FF0000C0B0E04BF09020CF15A
:100C1000080C0B0F04BF09010CF1040C8B0F04BF6F
:100C200089000CF1020CCB0F04BF49000CF1010C40
:100C3000CCF12003A0EB0C0022FA03F302FA0CF231
:100C400041EA030100F10100704720F07F4C80EA87
:100C5000030023F07F47ACEB070303F57C5300F060
:100C6000004003F1FF032DE980494FEA154B09B419
:100C70004FEA144325EA0B4E24EA03480FF20426F8
:100C800006EB132749083E785FEA320203FB06674A
:100C9000C7F5000707FB06F64FEA54374FEAD6467A
:100CA00006F1020607FB066CCCF1005C4FEA1C471C
:100CB0002CEA074C07FB06F40CFB06F504EB154683
:100CC0004FEA961634BF00204FF000404FEAD1376C
:100CD00006FB07FC4FEA1C4C0CFB0BF7D21B03FB7B
:100CE0000CF761EB07010CFB0EF7B0EB074072EB62
:100CF00017420CFB08F734BFA2EB0742B2EB0742E6
:100D000061EB17414FEA0C444FEA910706FB07FCE1
:100D10004FEA1C4C0CFB0BF7B0EBC74072EB5732A1
:100D200003FB0CF734BFA2EBC742B2EBC74261EB47
:100D300057310CFB0EF7B0EBC70072EB57720CFB90
:100D400008F734BFA2EBC702B2EBC70261EB5771E1
:100D5000039F4FEA816141EA921104EBCC044FEA10
:100D6000D1374FEA826206FB07FC42EA90124FEA53
:100D700080604FEA1C4C0CFB0BF7D21B03FB0CF7FB
:100D800061EB07010CFB0EF7B0EB074072EB17426B
:100D90000CFB08F734BFA2EB0742B2EB074261EB52
:100DA00017414FEA8C554FEA910704EB9C2406FB50
:100DB00007FC4FEA1C4C0CFB0BF7B0EBC74072EB87
:100DC000573203FB0CF734BFA2EBC742B2EBC7426A
:100DD00061EB57310CFB0EF7B0EBC70072EB5772AB
:100DE0000CFB08F734BFA2EBC702B2EBC70261EB02
:100DF000577115EB4C254FEA816141EA92114FEA98
:100E000082624FEAD13742EA901206FB07FC44F1B6
:100E100000044FEA80604FEA1C4C0CFB0BF7D21B1E
:100E200003FB0CF761EB07010CFB0EF7B0EB07407F
:100E300072EB17420CFB08F734BFA2EB0742B2EB90
:100E4000074261EB174115EB1C154FEA813141EA6E
:100E500092414FEA823242EA90424FEA80304FEAB2
:100E60000C7644F1000448EA03434EEA0B484FF085
:100E7000000EB2EB080C71EB030724BF6246394643
:100E80004EEB0E0E4FF0000B0018524149414BEB58
:100E90000B0BB2EB080C71EB03077BF1000B24BFCB
:100EA000624639464EEB0E0E4FF0000B00185241D1
:100EB00049414BEB0B0BB2EB080C71EB03077BF1D9
:100EC000000B24BF624639464EEB0E0E51EA020774
:100ED00018BF46F0010616EB0E7655F1000254F1EC
:100EE000000103D5BDE88901BDE80088BDE889019E
:100EF000BDE80048B619524141EB0101A3F10103DD
:100F0000704780807F7E7D7C7B7A79787776767576
:100F10007473727171706F6E6E6D6C6C6B6A6A69EE
:100F20006868676666656464636362616160605F88
:100F30005F5E5E5D5D5C5C5B5B5A5A595958585701
:100F40005756565555555454535352525251515069
:100F500050504F4F4F4E4E4D4D4D4C4C4C4B4B4BBC
:100F60004A4A4A4949494848484747474746464602
:100F7000454545444444444343434342424242413D
:100F80004141002B9C4630D477002BD01CB54FEA52
:100F9000370703B44FF010004FF01001BAF1000F03
:100FA00006D0BCF1000FDCBF40F0080040F00801A3
:100FB0004FF000000FBCBDE810400BF1010BBBF17E
:100FC000010F08BF5FEA170722BF12F1010211F1FA
:100FD00001014FF0004143F1000300F0004043EAFB
:100FE00000007047F9D35708D0E746EA064613F1E8
:100FF000400F4FEA16461FDD13F1200FDFBF1643E7
:101000000A46002120335B42BED0C3F1200746EAE6
:10101000064602FA07F74FEA164646EA0706C3F104
:10102000200722FA03F201FA07F721FA03F14FF041
:10103000000342EA0702A7E746EA020646EA064636
:101040004FEA164646EA0106BCBF46EA0646360C9B
:101050004FF000034FF000024FF0000194E72DE93C
:10106000804C9A46934670B491E8380007C831EA3C
:10107000400C48BF34EA430C03D5FFF7E6FDFFF709
:1010800080FFF0BCBDE8008C2DE9804C9A46934669
:1010900070B491E8380007C810F0804F08BF13F013
:1010A000804F03D100F005F8FFF76BFFF0BCBDE8FF
:1010B000008C20F07F4780EA030023F07F4C07EB91
:1010C0000C03A3F57C5300F00040A3F1FE0392F063
:1010D000000F00F0B38095F0000F00F077802DE94D
:1010E00001494FEA11404FEA144621EA004800FB4B
:1010F00006FC24EA064708FB06F607FB08F800FB97
:1011000007F718EB06484CEB164C4FEA124B18EB5E
:1011100007484FEA15464CEB174022EA0B4E0BFBF3
:1011200006FC25EA06470EFB06F607FB0EFE0BFB48
:1011300007F71EEB064E4CEB164C4FF000061EEB6D
:10114000074E4CEB174B18EB0B0840F1000018EB67
:101150000E0B58EB000840F100008F1A4FF0000111
:101160003CBFC943661B14BFB5EB040C00213CBF58
:10117000C943F61B4FEA17444EEA8E0E27EA044590
:101180004FEA1C4704FB07622CEA074C05FB07F7F4
:101190000CFB05F604FB0CFC16EB074642EB174272
:1011A00016EB0C4642EB1C421BEB060658EB020208
:1011B000414146EA9E0601D5BDE80189B619524172
:1011C00041EB0101A3F10103BDE801894FEA144598
:1011D0004FEA114724EA054621EA074C05FB07F4CC
:1011E00006FB07F70CFB06F105FB0CFC11EB0741B6
:1011F00044EB17444FEA124711EB0C4144EB1C44FB
:1012000022EA074C05FB07F206FB07F70CFB06F684
:1012100005FB0CFC16EB074642EB174216EB0C469F
:1012200042EB1C456A1854F1000148BF7047B619DB
:10123000524141EB0101A3F10103704795F0000F0A
:1012400037D04FEA11424FEA144721EA024624EA16
:10125000074C02FB07F106FB07F70CFB06F402FB49
:101260000CFC14EB074441EB17414FEA154714EB14
:101270000C4441EB1C4125EA074C02FB07F506FB39
:1012800007F70CFB06F602FB0CFC16EB074645EBDA
:10129000174516EB0C4645EB1C42121951F10001A3
:1012A00048BF7047B619524141EB0101A3F1010358
:1012B00070474FEA14454FEA114724EA054621EAF0
:1012C000074C05FB07F106FB07F70CFB06F24FF096
:1012D000000605FB0CFC12EB074241EB174112EB39
:1012E0000C4251EB1C4148BF7047921841EB010181
:1012F000A3F10103704770B505460E4631462846F6
:1013000000F0B8FB0021284600F040FB00240CE070
:1013100000BF284600F0A4FA00F080000028F8D1B1
:101320000021284600F0F8FB641C402CF0DB70BD67
:1013300010B5002404E0E1B20120FFF7DCFF641CDB
:10134000082CF8DB002404E0E1B20220FFF7D3FF11
:10135000641C082CF8DB10BD60B90D49496841F0E8
:101360003F010B4A51600B49496841F00C01094AA1
:1013700051600BE00649496821F03F01044A516081
:101380000449496821F00C01024A5160704700008D
:1013900000800A4000800E4010B50446012C06D1A2
:1013A0002148006840F080001F49086005E01E48A1
:1013B000006840F480701C4908601C48006820F0F8
:1013C00001001A4908601848006820F48060164936
:1013D000086017490968174AB1FBF2F000E0401EA7
:1013E0000028FCD1FFF7B8FF3F2000F021FB104997
:1013F0000968104AB1FBF2F000E0401E0028FCD161
:101400000A48006840F00200084908600849096875
:10141000084AB1FBF2F000E0401E0028FCD1204653
:1014200000F07CFA10BD000000000B4000800B4073
:101430001400002000093D0008B52B48C0692B4965
:1014400008432949C86100F05BF82948006820F486
:101450000070274908602749096801EB8101264A85
:10146000B1FBF2F000E0401E0028FCD120480068EB
:1014700040F400701E4908601E4909681E4AB1FB0D
:10148000F2F000E0401E0028FCD100BF012000F077
:10149000E7F900F0900030B1022000F0E1F900F02F
:1014A00090000028F2D100BF012000F0D9F900F02F
:1014B00080000028F8D10120FFF76EFF00BF022056
:1014C00000F0CEF900F080000028F8D10220FFF7EC
:1014D00063FFFFF72DFF0220152300221146009025
:1014E000064800F0ADF808BD000002400000E02012
:1014F00000000B401400002000093D0022370008C6
:101500004A48406820F03F00484948600846006962
:1015100020F03F1008610846C06840F03F00C860F6
:10152000084680686FF30B0088600846406920F029
:101530003F1048610846806940F6FF7108433B4907
:1015400088610846C06920F03F00C861384840689B
:1015500020F00C00364948600846006920F00C1065
:1015600008610846C06840F00C00C8600846806802
:1015700020F0F00088600846406920F00C104861B7
:101580000846806940F0F00088610846C06920F094
:101590000C00C8612748406840F4F0602549486065
:1015A0000846006924490840224908610846C06885
:1015B00040F4F060C8600846806820F47F108860BE
:1015C000084640691C4908401A4948610846806934
:1015D00040F47F1088610846C06920F4F060C8615B
:1015E0001648406840F00300144948600846006906
:1015F00020F0031008610846C06840F00300C8608E
:101600000846806820F00F0088600846406920F096
:10161000031048610846806940F00F008861084661
:10162000C06920F00300C8617047000000800A40D4
:1016300000800E4000000B407FF87FF800800B40D8
:101640002DE9FF4F82B080468946924600200090E7
:1016500057466BE04E4663E00A2E32D00B2096FBD5
:10166000F0F0401C00F0FF0B01970B2096FBF0F10F
:1016700000FB116000EB40004100ABF1010001EB09
:101680004000401CC5B25846019900F0F3F92946C4
:10169000584600F07BF9002410E000BF584600F0E7
:1016A000DFF800F080000028F8D10098204418F8F6
:1016B0000010584600F030FA601CC4B2062CECDB77
:1016C00028E0019700243D2522E02846E91705EB94
:1016D00091618911491C01F0FF0B5846019900F0F6
:1016E000C9F92946584600F051F900BF584600F0A4
:1016F000B7F800F080000028F8D10098204418F8CE
:101700000010584600F008FA601CC4B2681CC5B24C
:10171000062CDADB0098801DC0B20090701CC6B2A7
:1017200005984844B04297DC781CC7B20F985044E3
:10173000B8428FDC06B0BDE8F08F70B505460E46A6
:10174000002409E0285D00B908E0285D3246214602
:1017500000F010F8601CC4B2152CF3DB00BF06E0EB
:1017600032462146202000F005F8601CC4B2152C3A
:10177000F6DB70BD2DE9F04F06460F469246202E4F
:101780000ADBFF2E08DCA6F1200000EB40004FF63C
:10179000FF7101EA400901E04FF000090A2F32D041
:1017A0000B2097FBF0F0401C00F0FF08D3460B2005
:1017B00097FBF0F100FB117000EB40004100A8F135
:1017C000010001EB4000401CC5B25946404600F004
:1017D00051F92946404600F0D9F8002410E000BF36
:1017E000404600F03DF800F080000028F8D109EBF9
:1017F00004001A4A115C404600F08EF9601CC4B225
:10180000062CECDB28E0D34600243D2522E02846C8
:10181000E91705EB91618911491C01F0FF08594650
:10182000404600F027F92946404600F0AFF800BFD7
:10183000404600F015F800F080000028F8D109EBD0
:101840000400064A115C404600F066F9601CC4B210
:10185000681CC5B2062CDADBBDE8F08FE231000867
:1018600030B50446012C06D12648006840F08000BF
:101870002449086005E02348006840F4807021494D
:1018800008602148006820F001001F4908601D48D9
:10189000006840F480601B4908601C4909681C4AC4
:1018A000B1FBF2F000E0401E0028FCD10120FFF760
:1018B00053FD1548006840F00200134908601349C1
:1018C0000968134AB1FBF2F000E0401E0028FCD189
:1018D0001048006800F03F000F490968C02202EA82
:1018E000011140EA010509490968094AB1FBF2F012
:1018F00000E0401E0028FCD1204600F00FF82846EA
:1019000030BD000000000B4000800B4014000020A0
:1019100000093D0000800A4000800E4000B50346EB
:101920001648006820F0020014490860144909684C
:10193000144AB1FBF2F000E0401E0028FCD10F4831
:10194000006820F001000D4908600F48006820F48D
:1019500080600D4908600120FFF7FEFC012B06D1D5
:101960000948006820F080000749086005E0064843
:10197000006820F480700449086000BD00800B40BE
:101980001400002000093D0000000B4030B5044663
:101990000D46012C06D12248006840F08000204905
:1019A000086005E01E48006840F480701C4908602B
:1019B0001C48006820F001001A49086018480068B7
:1019C00020F480601649086017490968174AB1FB7E
:1019D000F2F000E0401E0028FCD1FFF7BDFC45F00E
:1019E000400000F025F810490968104AB1FBF2F0F8
:1019F00000E0401E0028FCD10A48006840F00200C8
:101A00000849086008490968084AB1FBF2F000E09B
:101A1000401E0028FCD12046FFF780FF30BD0000AB
:101A200000000B4000800B401400002000093D0026
:101A30000E4909684FF6C07211400C4A11601146F8
:101A4000096800F03F021143084A1160084909681B
:101A50004FF6F3721140064A1160114609680C22D4
:101A600002EA20121143024A1160704700800A40C6
:101A700000800E4030B504460D46012C06D12248A8
:101A8000006840F080002049086005E01E480068BA
:101A900040F480701C4908601C48006820F0010078
:101AA0001A4908601848006820F4806016490860E8
:101AB00017490968174AB1FBF2F000E0401E002800
:101AC000FCD1FFF749FC45F0B800FFF7B1FF104922
:101AD0000968104AB1FBF2F000E0401E0028FCD17A
:101AE0000A48006840F0020008490860084909688F
:101AF000084AB1FBF2F000E0401E0028FCD120466D
:101B0000FFF70CFF30BD000000000B4000800B40D1
:101B10001400002000093D0030B504460D46012C9C
:101B200006D12148006840F080001F49086005E0A8
:101B30001D48006840F480701B4908601B4800681D
:101B400040F00100194908601748006820F48060DF
:101B50001549086016490968164AB1FBF2F000E021
:101B6000401E0028FCD1FFF7F7FB2846FFF760FF77
:101B70000F4909680F4AB1FBF2F000E0401E00284F
:101B8000FCD10A48006840F0020008490860084992
:101B90000968084AB1FBF2F000E0401E0028FCD1C1
:101BA0002046FFF7BBFE30BD00000B4000800B401D
:101BB0001400002000093D00014908607047000042
:101BC0008800404210B502460C4BD86820F0030054
:101BD0001043D860586820F4706040EA01205860D3
:101BE000074B1B6843B10123054C241D23600023D0
:101BF000034C883CC4F88C3010BD0000000002404B
:101C00008800404238B50020009000BF212000F03D
:101C10002FF805460098401C00900098B0F5C06F62
:101C200001D2002DF2D0212000F022F808B10124C9
:101C300000E00024204638BD0149086070470000DC
:101C4000880140420146044AD06820F0F00040EA92
:101C50000110D06070470000000002400146034AB6
:101C6000D06820F440700843D06070470000024004
:101C700010B5014601F0E003202B02D1074B1A6892
:101C800001E0074BDA6B01F01F040123A34013406E
:101C90000BB1012000E0002010BD00000000024058
:101CA00000800D400D49896821F003010B4A9160C5
:101CB000012802D002280ED106E00849896841F0C7
:101CC0000101064A916007E00449896841F0030177
:101CD000024A916000E000BF00BF70470000024070
:101CE00038B50020009000BF2220FFF7C1FF054655
:101CF0000098401C00900098B0F5C06F01D2002DF4
:101D0000F2D02220FFF7B4FF08B1012400E0002444
:101D1000204638BD29B1064AD2690243044BDA6134
:101D200004E0034AD2698243014BDA617047000044
:101D30000000024010B50120FFF7B4FFFFF7D0FF0D
:101D4000012801D000BFFEE709210220FFF73AFF7A
:101D50000120FFF731FFFFF755FF012801D000BF39
:101D6000FEE70020FFF76EFF0120FFF765FF4FF44D
:101D70008070FFF773FF10BD10B501210420FFF73D
:101D8000C9FF03200F4908600B20486010200E494E
:101D9000886020204860102008600A4800F042FA5D
:101DA0001F2000F0BFFE00F069FA022001218140EF
:101DB0004209920002F1E022C2F8001100BF00F0D7
:101DC00081F910BD04000020D02A002030B5204C3D
:101DD000E46804F00204022C01D11E4800E01D4812
:101DE0001B4CE46804F0010404B140080146184C9F
:101DF000E46804F00404042C05D1154C6468C4F3B1
:101E00000324631C5943124CE468C4F3012424B135
:101E1000012C06D0022C13D10DE00E4C0E4D2C607F
:101E200013E00B4CE468C4F30314641CB1FBF4F23C
:101E3000094C226009E04FF40044074D2C6004E097
:101E400049F64044044D2C6000BF00BF30BD000087
:101E50000000024000127A001400002000B50D4876
:101E60000D49C8610846C0680020C860084640683F
:101E700000204860084680680020886008460069A5
:101E8000002008610846406900204861FFF79EFF76
:101E900000BD0000100000080000024001460D4A8D
:101EA000106940F480700A68104340F00400094A49
:101EB0001061506840F001004A6840EA0210054A8B
:101EC000506000BF034A126802F00102002AF9D0F4
:101ED00070470000000002402DE9F0410025224833
:101EE00047888688C4884078202802D021281ED1BF
:101EF0000BE0072C07D11D4B22461D49002000F0A6
:101F0000F1FC054600E0022513E0072C0DD118492D
:101F1000304600F083F8054645B9164B2246144971
:101F2000002000F0B9FC054600E0022501E0012593
:101F300000BF00BFA5B99CB90B48007800F0800035
:101F4000802806D100231A461946184600F0CAFC1C
:101F500005E000231A461946184600F09DFC054688
:101F60002846BDE8F081000078000020791F0008B5
:101F7000700000200D2200082DE9F04105460E46B4
:101F800017460C484078202806D10A4988883146EF
:101F900000F0D6F8044601E0022400BF00BF3CB9BF
:101FA00000231A461946284600F076FCBDE8F08169
:101FB0002046FBE7780000202DE9F04705468946DA
:101FC00016464FF000080027E8B208B1012710E0DC
:101FD0002812012802D0022808D103E0DFF830805F
:101FE000122405E0DFF82C80432401E0012700BF24
:101FF00000BF4FB9B44200D93446074B2246414690
:10200000002000F049FC07463846BDE8F087000094
:10201000180000202A0000200D22000802460AB104
:1020200002207047024B09CBC1E900030020F8E70A
:102030000C00002030B504460D46134629462046C4
:1020400000F08CF800200549088103B101E04FF44D
:10205000007002494881002030BD00002C2B002078
:102060002DE9F04107460C4615462946204600F06A
:1020700021F806461EB14FF4007008494881074810
:10208000408940B905484268054B0168032000F0CB
:1020900029FCBDE8F0810020FBE700002C2B00208C
:1020A0006120000810B503460020014C208110BDBE
:1020B0002C2B002070B504460D46204600F0DAFDBA
:1020C000002070BD10B500F0E5F80446CCB9002240
:1020D0000521012000F05CFA00220521022000F019
:1020E00057FA00220121032000F052FA06484089E5
:1020F00038B905484268054B0168032000F0F2FB3F
:102100000446204610BD00002C2B00206120000852
:1021100070B504460D460848068956B94FF400705C
:1021200005490881054B2A462146012000F0B4FBF1
:102130000646304670BD00002C2B0020A52000086C
:1021400010B502460AB1022010BD0348D1E900349F
:1021500018C00020F8E700000C00002002460248EA
:1021600002604160002070472C2B002070B50446AF
:102170000D461646022C04D11DB9F0B200F0E8F964
:1021800070BD0120FCE7000070B50026022001218F
:1021900081401B4A430942F8231000BF19480068D8
:1021A00060BB01201749086000F040FC044604F0C1
:1021B000040040B100F06EF8064600201249886025
:1021C000886800F06BFC002504E0E8B2214600F0CE
:1021D0003BFA6D1C042DF8D324F0010000F0B2FC92
:1021E0000020084908600220012181404209920034
:1021F00002F1E022C2F8001100BF00BF304670BDFE
:1022000080E100E084000020E82B002070B5044647
:102210000D46164600231A461946204600F062FB7A
:1022200070BD000070B505460C462846FFF736FE27
:1022300000F006FC4FF4803000F020FC206800F035
:102240001DFCD4E90112114341F0010000F02CFC07
:1022500000220521104600F09BF9054A054900209F
:1022600000F09CFB002004490870886070BD0000ED
:10227000C122000878000020E82B002010B50C20B7
:1022800000F0FCFB022002490870002010BD000095
:10229000E82B00200320024908700020704700004E
:1022A000E82B002070B504460D461646022C05D1D9
:1022B00025B9F0B2012100F0A5F970BD0120FCE7BD
:1022C0002DE9F34F81B00C464FF00008207800F064
:1022D000600A207800F080000090BAF1000F06D06C
:1022E000BAF1200F77D0BAF1400F75D108E14FF065
:1022F000000B6788A688B4F80690207800F01F05C8
:10230000032D02DD4FF0020800E160780D2872D243
:10231000DFE800F00740D454D46A72797C8FA1B210
:10232000C0000098802809D17A480078042808D194
:10233000012D03D0022D04D1042E02DB4FF0010841
:1023400027E04FF00008B8F1000F22D125B1012D90
:1023500006D0022D13D107E000206F4908700EE06F
:1023600000206D4908700AE006EB460000EBC6004D
:102370006A4901EB800040786749087000BF00BFE0
:10238000002065494870664B0222019800F084FAEB
:10239000804696E05F480078042808D1012D03D0DC
:1023A000022D04D1042E02DB4FF0010805E0324675
:1023B00039462846FFF7DAFE804682E05548007825
:1023C00004280AD1012D03D0022D06D1042E04DBEE
:1023D0004FF0010807E08FE095E032463946284685
:1023E000FFF760FF80466CE04FF0000849488760C7
:1023F000DFF830B165E061E04A4631463846FFF724
:10240000DBFD80465DE04FF001085AE0414800786E
:10241000042803D100204049087002E001203E4911
:1024200008703F4B01223C49019800F035FA804684
:1024300047E01FB90420374908700BE0012F01D095
:10244000012000E000208046B8F1000F02D10520F5
:102450003049087035E02F480078042802D14FF049
:10246000010808E000202C4908702D4B012201983A
:1024700000F012FA804624E026480078042802D1B1
:102480004FF0010805E006B90FB1012000E000207F
:10249000804616E01F480078042802D14FF001085A
:1024A0000BE04FF00108B8F1000F06D11C4B0222DF
:1024B0001949019800F0F0F9804602E04FF0020857
:1024C00000BF00BFB8F1000F15D1B9F1000F12D154
:1024D000207800F08000802806D15B46002211465B
:1024E000019800F0FFF905E05B46002211460198D3
:1024F00000F0D2F9804609E0FFF7EEFC804605E0E7
:102500004FF0010802E04FF0020800BF00BF404654
:10251000BDE8FE8FE82B002080000020382B002033
:102520000D2200082925000870B504460D46164600
:102530000649886800F0B2FA0448806808B10420AF
:1025400000E0032001490870002070BDE82B002046
:1025500070B5064606EB460000EBC6000B4901EBE2
:1025600080044FF40025607E08B9A07E20B10120D0
:10257000207045F0020501E000202070002060700E
:102580002946304600F028F8002070BD382B002086
:102590002DE9F04105460F46164605EB450000EBD8
:1025A000C5000C4901EB8004002060600021A1609F
:1025B0002161E1606161E06120626062A662607039
:1025C000207020763946284600F07EFA0020BDE8CB
:1025D000F0810000382B002070B504460D4604EB56
:1025E000440000EBC400064901EB80061F2000F008
:1025F000A9FA002030762946204600F065FA70BD21
:10260000382B00202DE9F04105460C4605EB45002E
:1026100000EBC5000B4901EB80060027012C03D11C
:1026200015B90120BDE8F081012C01D0B07E18B1B0
:102630007470052030700A2739462846FFF7CCFF12
:102640000020EFE7382B00202DE9F34F81B08346BF
:10265000002000900026584600F0D8F982465846DF
:1026600000F0DCF900F00308584600F0B7F907461F
:102670000BEB4B0000EBCB00864901EB800402988A
:1026800000F0010008B10120207600BF2078062864
:1026900027D2DFE800F003062773B2E80020BDE888
:1026A000FE8F07F00200E0B9207ED0B1B8F1020F32
:1026B00008D1607E30B103202070002060760120B8
:1026C00000900EE0B8F1000F06D1A07E20B10420EA
:1026D00020700120009004E0012600215846FFF7F9
:1026E00091FFCFE007F0020050BB207E40B3B8F16D
:1026F000010F25D10AF0400010B3D4E903100144C2
:10270000E160D4E90201814215D300202070E06924
:1027100028B15846E369D4E90112984706462EB914
:10272000207828BB5846FFF713FF26E000215846C3
:10273000FFF768FF21E00121584600F0F1F81CE0A6
:102740000AF00F00A0B100202070A06A38B13B460B
:10275000424651465846D4F828C0E047064646B996
:10276000207828B9022020700021584600F0D8F8BF
:1027700003E000215846FFF745FF83E007F0020021
:1027800080BB207E70B300200090584600F036F9E0
:102790008146002508E0584600F028F9C1B2E068FB
:1027A0002844626811546D1C4D45F4D301215846EC
:1027B00000F0A0F9E06800EB0901E160D4E9020152
:1027C000814215D300202070206A28B15846236A20
:1027D000E2686168984706462EB9207810B95846D5
:1027E000FFF7B6FE08E000215846FFF70BFF03E0B5
:1027F00002215846FFF7F0FE44E0207E08B3584619
:1028000000F0FCF88146B9F1080F20D1002506E060
:10281000584600F0EBF8C1B2606941556D1C4D455A
:10282000F6D30121584600F065F95846626A61699D
:102830009047064636B92078042811D15846FFF74C
:1028400087FE0DE000215846FFF7DCFE08E001217D
:10285000584600F04FF9012600215846FFF7D2FEF6
:10286000002000900EE007F0020050B960780128C7
:1028700004D101215846FFF7C5FE02E05846FFF794
:1028800067FE00BF00BF009800287FF4FFAE30460F
:1028900005E70000382B00202DE9F04705460E46DD
:1028A0001746984605EB450000EBC5000C4901EBC7
:1028B0008004A07E08B1022000E00120814666600D
:1028C000A760202121610021E160C4F81C804946F5
:1028D000284600F025F8022020700020BDE8F0878F
:1028E000382B00202DE9F04105460E461746984644
:1028F00005EB450000EBC500084901EB800466606C
:10290000A76000212161E160C4F820800120607689
:102910002846FFF71DFE0020BDE8F081382B00207F
:102920002DE9F04106460F4606EB460000EBC600D7
:10293000194901EB80040121304600F0EBF827B182
:10294000012F03D0022F0AD104E008E0304600F046
:1029500087F804E00421304600F0B6F800BF00BF5D
:10296000D4E903100144A068814203D2D4E90310E2
:10297000084400E0A0688046E56805E06068415DC5
:10298000304600F0BFF86D1C4545F7D302213046B4
:10299000FFF722FEBDE8F081382B00202DE9F04141
:1029A00006460F46154606EB460000EBC6000A49F0
:1029B00001EB800467610021A1602161E160656233
:1029C0000DB1012000E00020A0763046FFF7C0FDE9
:1029D0000020BDE8F0810000382B002001460248AD
:1029E00000EB0110006870470001014001460248F9
:1029F00000EBC110006870478001014001460248A9
:102A000000EBC110C06870478001014001460248D8
:102A100000EB011040687047000101400146024888
:102A200000EB011080687047000101400148006818
:102A3000704700004801014010B5FFF7A5FB10BD2D
:102A400000B5022000F01AF8002300E05B1CB3F58B
:102A50007A7FFBD34FF4003000F010F800BD000087
:102A6000054A02EB0012116881F00401024A02EBF0
:102A700000121160704700000001014000BF054ACC
:102A8000116882B2114321EA1041034AC2F880134F
:102A900000BF704780030140000001400149086009
:102AA000704700005001014000BF054A116882B222
:102AB000114321EA1041034AC2F8401100BF704798
:102AC000400101400000014010B500BF074C04EB7D
:102AD0000013D3F800218BB21A4322EA1142044BAF
:102AE00003EB00131A6000BF10BD0000000001409E
:102AF00000010140024A02EBC01211617047000060
:102B000080010140024A02EBC012116470470000CC
:102B100080010140024A02EBC012116570470000BB
:102B20008001014000BF054A116882B2114321EAC9
:102B30001041034AC2F84C1100BF70474C010140DC
:102B40000000014001490860704700004801014051
:102B50004FF4E130034908600020087148710820F3
:102B6000887170470C000020490050EAC12018BF4E
:102B700004204A0D18BF40F0010040F2FF72B2EB92
:102B8000515F08BF40F00200012808BF05207047D0
:102B900030380A2801D201207047002070472DE903
:102BA000F04F07460C461D46DDF828B02346A046E8
:102BB00000200DE0002108E003FB002A1AF801A024
:102BC00008FB005E0EF801A0491CA142F4DB401C8A
:102BD000B842EFDB012047E0012140E003FB002A7F
:102BE0001AF801E0DDF824A0D64537DA03FB002A05
:102BF0001AF801A0DA4506DC4FF0000A08FB005E77
:102C00000EF801A02AE04FF000094FF0FF3619E05E
:102C10004FF0FF3C12E000EB060ABAF1000F0BDBAD
:102C200000EB060A03FB0A2A01EB0C0E1AF80EA0B1
:102C3000DA4501DC09F101090CF1010CBCF1010FCD
:102C4000E9DD761C012EE3DDDDF82CA0D14505DDA4
:102C50004FF0000A08FB005E0EF801A0491CA4F129
:102C6000010A8A45BADC401CA7F1010A8245B3DC9F
:102C7000BDE8F08F2DE9FE4F824600240BE01AF8E4
:102C800004004149098801EB8101404A02EB01112E
:102C90000855601C84B2502CF1DB3B480088401C76
:102CA000394908800846028839A13C48FDF786FA70
:102CB00001213A48FEF741FD3949098801EB8101BC
:102CC0000901C1EB011101EB41012F4A128802EB0E
:102CD000820201EB021000F017FA07460022314B86
:102CE00000F0BAF805462A460B462FA12B48FDF7FF
:102CF00065FA05212948FEF720FD234800882D2884
:102D000040D10220BE2128222B4BCDE90021029088
:102D10001E4A50212D20FFF742FF002418E04FF0FB
:102D2000000910E004EB8400234901EB001010F8C7
:102D3000090004EB840109EB0111204A505409F108
:102D400001001FFA80F9B9F1500FEBDB601C84B26F
:102D50002D2CE4DB4FF461611848FFF7D9F9834665
:102D60000020094908800E480088401C0C49088052
:102D70000846028812A10948FDF720FA03210748F6
:102D8000FEF7DBFCBDE8FE8F000000209D00002068
:102D90006C696E653A202564000000008800002000
:102DA000020000200000904073697A653A20252EC9
:102DB0003266204B42000000AD0E0020BD1C0020FA
:102DC0006672616D653A202564000000FEF734FBF1
:102DD000FEF7AEFA01210CA0FEF7AFFC03210CA018
:102DE000FEF7ABFC05210DA0FEF7A7FCFFF7B0FE38
:102DF000012250210C48FFF71DF9FEF79BFFFEF75B
:102E0000BBFF00BFFEE700006C696E653A20300032
:102E10006672616D653A20300000000073697A6562
:102E20003A2030204B420000DC2A002010B5002957
:102E30000AD00878002807D005487844FDF74CFEF2
:102E4000002801D0002010BD0248784410BD0000C9
:102E50009A0A0000920A00002DE9C04130B4DFF860
:102E6000A0C23CEA111418BF3CEA131400F0EC8035
:102E700081EA03051CEA111444EAD57418BF1CEA60
:102E8000131500F0C780A4EB05044FF0004545EA98
:102E9000C12145EAC32341EA505143EA525304F1A8
:102EA0007F74994204F500344FEAC0204FEAC222F1
:102EB00008BF904200F09C804FEA13650FF2401665
:102EC000765D4FEA134506FB05F7C7F1807706FBF1
:102ED00007F74FEAD737A7FB03687642C8F5803873
:102EE000A7FB06CE38BFA8F1010807FB08E64FF0A4
:102EF000000EA6FB028CE6FB03CEDCF1000CCEF14B
:102F0000004E38BFAEF1010EA6FB0C584FF0000783
:102F10004FF00005E6FB0E87A1FB08C6A0FB07CE1D
:102F200016EB0E0645F10005E1FB076515F1E04ED5
:102F30007EBFA4F580345FEA46066D4116F1800736
:102F400045F100054FEA17274FEA066647EA05678D
:102F5000A6F1DE46B6F1805F4FEA15251FD9384647
:102F600024F0010C05EBC471BCF1FE6F01EB0C11F8
:102F700002D8F0BCBDE8008124425CBF01F5801E90
:102F80009EEAC47F02D4F0BCBDE80081244238D45C
:102F9000F0BCA1F1C041BDE8004100F01AB94FEA10
:102FA000D22242EA43524FEAD323A7FB02864FEADA
:102FB000D02040EA415007FB03661EEA0E0F4FEA9D
:102FC000D12105FB026658BFA6EB0056B6EB0056B2
:102FD0004FEA520E4EEAC37E18EB0E0E56EB530E1E
:102FE000BDD518EB02085E417F1C55F10005B6E720
:102FF0004FF480154FF000074FF000064FF0000827
:10300000ADE7F0BC4FF0000001F1C04101F000411C
:10301000BDE8008111EA0C1F0CEA131500D00CE08A
:1030200013EA0C1F00F025804FF00000F0BC81EA8D
:10303000030101F00041BDE80081F0BCBDE80041A2
:1030400081EA030100F0C5B8F0BCBDE8004170B5ED
:1030500000F071F8097EFC3E00F007B881EA030138
:103060004FF0000001F00041704781EA030100F0D9
:10307000B0B8F0BCBDE800414FF0000021497047F6
:10308000FFFDFBF9F7F5F4F2F0EEEDEBE9E8E6E42D
:10309000E3E1E0DEDDDBDAD8D7D5D4D3D1D0CFCDB4
:1030A000CCCBCAC8C7C6C5C4C2C1C0BFBEBDBCBBED
:1030B000BAB9B8B7B6B5B4B3B2B1B0AFAEADACABE8
:1030C000AAA9A8A8A7A6A5A4A3A3A2A1A09F9F9EC2
:1030D0009D9C9C9B9A999998979796959594939374
:1030E000929191908F8F8E8E8D8C8C8B8B8A89890B
:1030F000888887878685858484838382828181808E
:103100000000FF070000F87F10F0004248BF404277
:10311000B0FA80F310FA03F10AD0C3F11D0303F5EE
:1031200080634FEA415002EB035202EBD12170471A
:103130004FF0000070470EF1020E2EF0030E5EF805
:10314000046B364205D4012A43EB030515F5001F35
:1031500012D8012841EB010C1CF5001F0CD80ED130
:103160004FEAD17C15F5001F0CEB4C0C0CF1020C56
:1031700008BF4CEBD37C04E04FF0080C01E04FEAB1
:10318000D37C0CEB4C0526FA05F606F00706B6F1E3
:10319000040C06D20EEB860CBDE870404CF0010C1E
:1031A0006047DFE80CF0090B02024FF000414FF0DE
:1031B0000000A1F5002170BD19461046012851EB11
:1031C000010418BFD4F5001484BF002001F00041B1
:1031D00070BD0808A0F500114FEA31017047FDF7F6
:1031E000F9B900000000000000005F0000000007C7
:1031F00000070000147F147F1400242A7F2A120085
:10320000231308646200364955225000000007006D
:103210000000001C224100000041221C0000140894
:103220003E08140008083E08080000503000000066
:10323000080808080800006060000000201008046A
:1032400002003E5149453E0000427F40000042617D
:10325000514946002141454B31001814127F10009E
:103260002745454539003C4A494930000171090567
:103270000300364949493600064949291E000036EF
:1032800036000000005636000000081422410000FD
:1032900014141414140000412214080002015109EE
:1032A00006003E415D551E007E1111117E007F49D2
:1032B000494936003E41414122007F4141221C00E4
:1032C0007F49494941007F09090901003E414949B7
:1032D0007A007F0808087F0000417F4100002040FD
:1032E000413F01007F08142241007F4040404000E0
:1032F0007F020C027F007F0408107F003E414141A5
:103300003E007F09090906003E4151215F007F0907
:103310001929460026494949320001017F0101006F
:103320003F4040403F001F2040201F003F403840AA
:103330003F00631408146300070870080700615118
:1033400049454300007F414100000204081020006D
:103350000041417F0000040201020400404040405F
:1033600040000000010200002054545478007F48BF
:1033700044443800384444444400384444487F00BE
:10338000385454541800087E0901060018A4A4A457
:103390007C007F080404780000447D400000204049
:1033A000443D00007F102844000000417F400000A1
:1033B0007C04180478007C080404780038444444F1
:1033C0003800FC242424180018242428FC007C083D
:1033D00004041800085454542000043F44403000B2
:1033E0003C4040207C001C2040201C003C403040E1
:1033F0003C004428102844001CA0A0A07C00446489
:10340000544C440000083641000000007F000000DA
:1034100000413608000010081010080000000000ED
:103420000000007E43437E00007E63637E00007EDA
:1034300073737E00007E7B7B7E00007E7F7F7E003C
:1034400040004000400004047F04040014147F1472
:103450001400143E554122001C227F221400487E95
:103460004949420000081422000004027F020400BF
:1034700010207F201000081C2A08080008082A1CB9
:1034800008007F4171311F0002557D050200101EAA
:103490003F1E1000E0E07F020C00E4E87F224C00B9
:1034A00000183C3C1800080808080800080808082C
:1034B00008007F4141417F0008082A0808001020C9
:1034C0007F01010000002214080014341C161400AF
:1034D0002412242412002A2A2A2A2A0000444A51AB
:1034E000000000514A44000007484B483F000C517F
:1034F00052513C002040413F0100221C141C22007C
:103500007E0202020300000077000000204A5529D5
:1035100002007C55545544003E635D6B3E003E49BD
:103520004941220008142A142200040404041C0047
:103530000000000000003E41754B3E0000017C0190
:10354000000006090906000044445F4444000041AD
:103550007F41000000447D4000007C040406000020
:10356000FE20201E200006097F017F0000000C0CB9
:1035700000003855545518007F0408107F00385457
:103580005444280022142A1408002040443D00001E
:103590002649494932000854545420000002780258
:1035A00000007E1111117E007F45454539007F499D
:1035B000494936007F0101010300603E213F600060
:1035C0007F494949410077087F08770041494949C7
:1035D00036007F1008047F007E2013087E007F08DD
:1035E00014224100403C02017F007F020C027F0058
:1035F0007F0808087F003E4141413E007F010101F4
:103600007F007F09090906003E4141412200010176
:103610007F010100074848483F001C227F221C0010
:103620006314081463007F40407FC0000F10101027
:103630007F007F407F407F007F407F40FF00017F11
:10364000444438007F4438007F007F444438000001
:10365000224149493E007F083E413E004629190962
:103660007F002054545478003C4A4A4930003E4977
:103670004D4A30007C04040C0000C078447CC0003B
:103680003854545418006C107C106C004454542866
:1036900000007C2010087C007C2112097C007C103A
:1036A000284400007008047C00007C0810087C009E
:1036B0007C1010107C003844444438007C0404041E
:1036C0007C00FC24242418003844444444000404AE
:1036D0007C0404001CA0A0A07C003048FC48300002
:1036E0004428102844007C40407CC0000C10107C12
:1036F00000007C407C407C007C407C40FC00047CE2
:10370000505020007C5020007C007C505020000055
:103710002844545438007C10384438000854341479
:103720007C0040407C06721AEADABADAEA9A7A0633
:103730007C404000000000000000C0202020C000AD
:10374000C0202020C0000000000000000080408059
:103750004000E0202020E000E00080402000E00069
:1037600080402000000000000000E0408040E000B9
:1037700080000000800000008080000000808080C9
:103780000000800000008000000080800000808039
:1037900080800000408040800000000000000000A9
:1037A0000505356045555555555555554560350503
:1037B00005000000000000000F0202020F000708D1
:1037C00008080700000000000000010205020400D4
:1037D0000F0000000F000F01020408000F01020497
:1037E00008000000000000000F0001000F000F049F
:1037F00002010F000E01000F0000040A0A0A0F0068
:103800000F0202020F00180F080F18001F04040413
:103810000300040205020100000000000000000097
:1038200002400000000000A0000000000540000071
:10383000000000C8000000000C4000000000409C98
:1038400000000000194000000020BCBE0000000085
:1038500034400000BFC91B8E00000004B5400000CA
:10386000504BCFD06607E2CF010000006C41000052
:103870003E8251AADFEEA73401000000D9420000C9
:10388000DCB5A0E23A301F97FFFFFFFFB445000010
:10389000FD25A0C8E9A3C14FFFFFFFFFFF3F0000C8
:1038A0000000008000000000FF3F000000000080DA
:1038B00000000000F0380008000000208800000030
:1038C000FC0000087839000888000020D031000092
:1038D000180100081C00000043000000F8FFFFFF73
:1038E0000C0000000E0000000F0000002E00000081
:1038F00000000000000000000000000000000000C8
:103900000000000000127A001201100102000020E5
:10391000830425F1000000000001090243000201B8
:103920000080320904000001020201000524001099
:1039300001052401000104240206052406000107F4
:1039400005820320000209040100020A00000007AA
:10395000058102200000070503022000000000008E
:103960000000000000000000000000000000000057
:0839700000000000000000004F
:04000005080000C12E
:00000001FF
